:020000041000EA
:10000000002008205D0100101B0100101D010010E0
:100010001101001011010010110100101101001058
:100020001901001019010010190100101F01001022
:10003000110100101901001021010010230100100E
:100040001101001011010010110100101101001028
:100050001101001011010010110100101101001018
:100060001101001011010010110100101101001008
:1000700011010010110100101101001011010010F8
:1000800011010010110100101101001011010010E8
:1000900011010010110100101101001011010010D8
:1000A00011010010110100101101001011010010C8
:1000B00011010010110100101101001011010010B8
:1000C00011010010110100101101001011010010A8
:1000D0001101001011010010110100101101001098
:1000E0001101001011010010110100101101001088
:1000F0001101001011010010110100101101001078
:100100001101001011010010110100101101001067
:10011000EFF30580103800BE00BE00BE00BE00BE7A
:1001200000BE00BEF2EB8871DC58001000590010D0
:10013000A001001090A31AE7D3DEFFFF42012110B7
:10014000FF010000E86B0000793512AB4FF00000B2
:100150001E49086006C881F3088810474FF05040D8
:10016000006810B14FF00000F2E70DA40ECC00299A
:1001700002D000F012F8F9E71549164A002000E015
:1001800001C19142FCD11449884714498847144958
:10019000884700BEFDE701C901C29A42FBD3704700
:1001A000005900101001002030150020206D0010B3
:1001B0000000082000000820206D0010001008201A
:1001C00000100820000000007047000008ED00E06B
:1001D0003015002020250020B11E0010350200102F
:1001E000A91E0010F8B500BF064B0749C91A8910AF
:1001F00048BF0131491003D0044B0BB101481847E7
:10020000704700BF301500203015002000000000AE
:1002100008B5054B1BB105490548AFF30080BDE8A3
:100220000840FFF7E1BF00BF000000006824002085
:10023000105500102DE9F84F01F032FF4FF4E13175
:100240006B4801F0A9FA0221002000F0E9FA02212E
:10025000012000F0E5FA002301220821644801F0A2
:100260001DFB6449644804F095FB0321042000F061
:10027000D7FA0321052000F0D3FA0022012104203F
:1002800000F0ECFA00220121052000F0E7FA0E2030
:1002900000F0F8FA0E204FF0000343EC4400002277
:1002A000012100F0DBFA00F0B1F800F031F900F0C4
:1002B00019F93E2000F05CF900F05AFA01224F4B88
:1002C000DFF84081DFF84091494CD3E900574FF007
:1002D00050435B68C3F38036B24203F4804332D0AC
:1002E00001F010FA42F210734FF0FF3C6FF0004241
:1002F000C51841F10007AC4572EB070301D2654612
:100300001746A369D80616D4A369D906FCD4206879
:10031000B8F900305FFA80FA53450ED0A3699B0606
:10032000FCD45046C4F800A000F022F900F020FAF6
:10033000504601F0B7FE3246C9E7A3699A06FCD4DD
:100340000D232360EAE7002BDBD1D9F824309F424C
:10035000D7D8D9F82820AA4201D29F42D1D04FF055
:10036000480BDFF89CA0584600F002F9B8F90030BD
:100370005B452AD0A3699A06FCD4C4F800B01AF8E9
:1003800001BFBBF1000FEED11D4801F0CDFE0A20E8
:1003900000F0EEF8B8F900200D2A1CD0A3699806E9
:1003A000FCD40D230A2A23601BD0A3699A06FCD42F
:1003B0000A23236000F0DCF94FF0504253685B04DD
:1003C000FCD5322001F0ACF89BE7A3699906FCD478
:1003D0000D232360CEE7A3699B06FCD40D23236085
:1003E000DCE7A3699906FCD40D232360DDE700BF99
:1003F00000000740801A0600C40F0020B05600100D
:10040000105500100025002000000B402DE9F041A0
:100410004FF0800800278AB0104D0DF10C0C0FCD65
:10042000ACE80F0095E80700ACE803000DF10B0401
:1004300009AE8CF8002014F801CF02233C210848B3
:1004400002AA00978DF808808DF809C004F0C8FA58
:10045000B442F0D10AB0BDE8F08100BF8C56001064
:10046000C40F0020F0B5802700251B4B87B093E810
:10047000030004AC0490ADF814100DF1160614F846
:1004800001CB02233C21154803AA00958DF80C707E
:100490008DF80DC004F0A4FAB442F0D140F201206E
:1004A00001F0BAFC0446A8B140234FF400720C4995
:1004B00000F8013B04F0ECFD40F201233C21224610
:1004C0000095064804F08CFA204607B0BDE8F040DD
:1004D00001F0B4BC07B0F0BDA8560010C40F002056
:1004E000541E002008B54FF400720021034804F0A8
:1004F00057FDBDE80840FFF7B5BF00BF541E002000
:1005000000487047541E00204FF40070704700BF31
:100510004FF02032002110B40E4B0F4C0F481C61DD
:1005200018620F4C0F48C3E90022C3E90222C3E955
:100530000522C3E90922C3E90D221C6318640A4C91
:100540000A48DA61DA62DA63216001605DF8044B1F
:10055000704700BFBC240020002020202000202065
:1005600020200020202020001C1E0020181E00201B
:100570000D282FD070B47B4D0A282B6800F0B68070
:10058000082819D07F2817D0A0F16102D2B2192A09
:1005900021D92F2840F2B480392800F2DC80724E35
:1005A000724C326803EB03112144885401320F2A44
:1005B0005EDC326070BC70476B490A68002A0DDD52
:1005C00020246A4803EB0313013A03449C540A6055
:1005D00070BC704770472038C0B2E0E7002BE9DDFF
:1005E000013B624C03EB031222442B60D57B1801C4
:1005F000202D40F09180957B202D40F09080557B00
:10060000202D7FD1157B202D40F08B80D57A202D99
:1006100040F08980957A202D40F08780557A202DF2
:1006200040F08580127A202A40F08380C518621934
:10063000D679202E7FD19679202E7ED15679202E04
:100640007DD11679202E7CD1D678202E7BD196783C
:10065000202E7AD15278202A79D1625D202A78D151
:1006600000220A6015462022184420444255A1E782
:1006700000220133032B2B6032609BDD2646D4F829
:100680001920D4F81D30D4F81100D4F815104FF00B
:10069000203C0FC6D4F82230D4F82A20C4F81130F8
:1006A000D4F82630C4F81920C4F81530D4F82E3008
:1006B000D4F83320C4F81D30D4F83730C4F82220E1
:1006C000C4F82630D4F83F30D4F83B20C4F82E309C
:1006D0000323C4F82A20C4F833C0C4F837C0C4F8D0
:1006E0003BC0C4F83FC02B6070BC70470021013391
:1006F0001D4A032B2B6011607FF75CAF1B4CBDE7DD
:1007000000204CE70D25C6186A1C2644B65C0A601A
:10071000202EA7D10D60A6E70F250D60A3E70E25BB
:10072000F1E70C25EFE70B25EDE70A25EBE70925B7
:10073000E9E70825E7E70725E5E70625E3E70525D7
:10074000E1E70425DFE70325DDE70225DBE70125F7
:10075000D9E70025D7E7A0F14102D2B21A2A28BF73
:1007600000201CE71C1E0020181E0020BC240020B6
:100770002DE9F047FFF7C4FE0446FFF7C5FE002150
:100780000246204604F00CFC80254FF00008224F62
:10079000224EC146BA461CE0DCB2403C24B206EB15
:1007A000C404FFF7ADFE237800F8093063784844AD
:1007B0004370A37809F108098370E3784D45C3704D
:1007C0002379037163794371A3798371E379C371E9
:1007D00015D01AF8014FA4F16103192BA4F14101BE
:1007E000A4F13002A4F12003D6D91929D5D9092AB8
:1007F0009BBF153C24B2344606EBC404D1E78035D8
:10080000B5F5207F08F1800807F11107C1D1BDE8D7
:10081000F047FFF727BE00BFBB240020000E0020DA
:1008200010B44FF480740C4B53F8202003EB80037A
:10083000C00082F0400200F1804003F5805C02F0CD
:10084000C00200F5203003F54053CCF80020416091
:100850001C605DF8044B70470480034010B4084CE2
:10086000C90041EA820154F8202004EB8003514082
:1008700003F5805301F00C015DF8044B19607047DB
:100880000480034030B44FF0000343EC440043ECD9
:10089000400005254FF480740B4BC20053F8201024
:1008A00003EB800081F0400102F1804303F5203327
:1008B00001F0C00200F5805100F540500A605D6013
:1008C000046030BC704700BF048003400FB400B523
:1008D00083B0049C074801F027FC3CB105A92046E1
:1008E000019101F0B1FA044801F01EFC012001F071
:1008F000C3FA00BF1C5500102C55001070B5864679
:10090000EFF3108572B6124CD4E8CF6F0120002EA1
:10091000FAD1C4E8460F002EF6D1BFF35F8F4FF037
:10092000010CC80801F007030CFA03F31EF800C01D
:100930001CEA030608D14CEA030C0EF800C0C4E818
:100940008F6F85F3108870BD1046FFF7BFFF00BFA3
:10095000D7190020F8B5EFF3108772B61C4ED6E811
:10096000CF5F0124002DFAD1C6E8454F002DF6D106
:10097000BFF35F8F9A421BD8012502E001329342F8
:1009800022D3D40810F804E002F0070C05FA0CFC9E
:100990001EEA0C0FF2D14EEA0C0E00F804E01046ED
:1009A0000023C6E88F3F87F31088984207DBF8BD25
:1009B0000023C6E88F3F87F310884FF0FF300029EF
:1009C000F5D00698FFF782FF4FF0FF30E8E700BF51
:1009D000D7190020044A1078431CDBB2182B28BF1B
:1009E00010231370704700BF280F002010B5054C6E
:1009F00082B001461F23182200940348FFF7AAFF84
:100A000002B010BD30550010E81D00204FF0E0226C
:100A1000936843F000539360704700BF0021044B7C
:100A200003F12002C3E88F1F01339342FAD17047CC
:100A3000CC1900204FF0E0234FF08032C3F800249F
:100A4000C3F80424C3F80824C3F80C24C3F8102402
:100A5000C3F81424C3F81824C3F81C24C3F82024B2
:100A6000C3F82424C3F82824C3F82C24C3F8302462
:100A700062B67047012300F01F029340400941B164
:100A8000800000F1604000F56140C0F880310360F3
:100A90007047024A203042F82030704700E100E001
:100AA0000123064A410952F8212000F01F0003FAF1
:100AB00000F01040003818BF0120704700E100E04E
:100AC00001224309034900F01F008240403341F8EE
:100AD0002320704700E100E0054A10309268054B82
:100AE00052F82000C01A2F288CBF00200120704728
:100AF00000ED00E02C0F0020F8B50D46EFF3108755
:100B000072B6124ED6E8CF2F0123002AFAD1C6E8DA
:100B1000423F002AF6D1BFF35F8F0D4B00F1100466
:100B20009B680C4A53F82430934203D0994201D079
:100B300001F05EF8064B9B6843F82450BFF35F8FCB
:100B40000023C6E88F3F87F31088F8BDD519002031
:100B500000ED00E0110100102DE9F04F81468B46B9
:100B6000164683B0EFF3108372B6DFF8D0A100937E
:100B7000DAE8CF1F01230029FAD1CAE8413F002952
:100B8000F6D1BFF35F8F664B93F90040002CC0F2A3
:100B9000A080644D04EB440705EB870898F8061025
:100BA00009F110091970604BBF009B6853F82900C8
:100BB0006300411B2F292FD95C49884240F0A48053
:100BC0001C445B4B02372F44043BDB1BC3F34A033B
:100BD0006FEAC3434FF421416FEAD34325F8241051
:100BE00005EB840463804BF60153A380FF2348F098
:100BF0000100E671C4F808B0A3714B4B9B6843F841
:100C00002900BFF35F8F0023CAE88F3F009B83F367
:100C1000108803B0BDE8F08F20F0010E9EF8071099
:100C2000B1422ED84FF42143EB53414BB91C294418
:100C3000043B04375B1A2F44AEF10401C91BC1F316
:100C40004A043C49C3F34A030B432143A8F8041068
:100C50003949A8F802304AF6AA2073465B1B5B416B
:100C60005843000D88F8076088F80600C8F808B0F7
:100C700048F00100CEF80010BFE7D179B1422ED97B
:100C800096469EF906C00CEB4C02BCF1000F05EB3A
:100C90008202F2DA4BF601510EF10402A8F10407C8
:100CA000BF1AC7F34A076FEAC7476FEAD7478EF8FC
:100CB000064003EB0408204C05EB8803AEF80470F3
:100CC00045F82840998083F806C0DE71C3F808B063
:100CD00093E700F08DFF124B93F9004059E77246FD
:100CE00032F8041F490514D44915023102EB4101C1
:100CF00001916FF00701C91B019F491B3944C1F3E2
:100D00004A0141F46041C9E7019300F071FF019B82
:100D100056E701F5FF1101F5FF511F31E4E700BF70
:100D2000182500202C0F002000ED00E0110100101C
:100D30005C0F002000E0FFFF01488047D51900202C
:100D4000F0B5EFF30585EDB2EFF3108C72B62649DE
:100D5000D1E8CF2F0123002AFAD1C1E8423F002A6F
:100D6000F6D1BFF35F8F214E40F0010EB4684AF612
:100D7000AA2354F825701E4A0446A41A644163430A
:100D80001B0D77455BB21BD092F906409C421CD0EC
:100D900092F912409C4223D092F91E409C4221D0ED
:100DA00092F92A409C4208BF03240FD0114A002424
:100DB000157813708571C1E88F4F8CF31088F0BDE2
:100DC000B2680D4C42F82540F0E7002404EB4404DF
:100DD00002EB8402FF2494714BF601549480E5E702
:100DE0000124F3E70224F1E7D519002000ED00E02B
:100DF0002C0F0020182500201101001010B5074C01
:100E000082B001460523002200940548FFF7A2FDA9
:100E10000028A8BFC0F1330002B010BD4C5500102F
:100E20001C250020014B0B4403607047CC190020A7
:100E300070B5104C104DAC420ED2FF26236863B142
:100E4000FFF7C8FD01462046FFF7ECFFA680BFF381
:100E50005F8F0834AC42F1D370BDFFF7BBFD014694
:100E60002046FFF7DFFF2671BFF35F8F0834AC42E7
:100E7000E4D370BD281500203015002010B50446BD
:100E8000FFF7A8FD01462046FFF7CCFFFF232371A3
:100E9000BFF35F8F10BD00BF10B504460120FFF700
:100EA000A5FD034B03442360BFF35F8F10BD00BF5C
:100EB000CC190020024B0B440360BFF35F8F7047D7
:100EC000CC1900200D4B1A68EFF3108172B6D2E8EE
:100ED000CFCF0120BCF1000FF9D1C2E84C0FBCF11B
:100EE000000FF4D1BFF35F8F00221B68C3E88F2F80
:100EF00081F3108840BF002000217047B0240020FB
:100F00002DE9F04F2DED028B85B0EFF30583DBB2B9
:100F1000103B9A0818BF01224FF0010103F0030BA8
:100F200018BFAF4DAF4B08BFAF4D0BEB820253F86C
:100F3000226001FA0BF205F541539FEDA78B019258
:100F40005A602FE0B3881C0440F19380B379002BE2
:100F500040F0DD80B6F90820002AC0F21E817369D6
:100F600002EB420203EBC203D3E90247B7F1FF3FB2
:100F700008BFB4F1FF3F0ED005EB8B01AB6A0A69E5
:100F8000D21AE31A934205D301232A6A03FA0BF318
:100F9000134200D10C61284600F0ACFBA042B941DD
:100FA000C0F2FB80B6F90830019A002B0093EA6387
:100FB000C8DBD6F8148003EB4309284608EBC907C1
:100FC000D7E9024A00F096FBA04271EB0A01B9DBB7
:100FD000BAF1000FC0F2C380D7E90431834A9342CB
:100FE00000F0ED807A88B6F9080092B242EA00403B
:100FF000984702460B4652EA030100F0B080002BEE
:1010000080F2D180B4EB020E6AEB030A38F9393072
:10101000C7E902EA002B95DB716903EB430201EBA0
:10102000C202D2E90270BE457AEB000C4FEA4302DD
:1010300088DBB4462CF8083F06E003EB430001EBE5
:10104000C0005A00D0E90270BE451A447AEB000095
:1010500001EBC20404DB31F93230A446002BECDA98
:1010600028F83930009BACF80030B3881C043FF5F9
:101070006DAF3369EFF3108272B6D3E8CF0F012161
:101080000028FAD1C3E8401F0028F6D1BFF35F8FD4
:101090004FF6FF74B0880023316900B2B480C1E814
:1010A0008F3F82F310889842FFF650AF0746A9465B
:1010B000746906F1080807EB470E04EBCE03D3E989
:1010C0000250B6F90830C446002B13DBB246009735
:1010D00004E034F936309446002B09DB03EB430679
:1010E00004EBC602D2E90271BD4270EB0101F0DAF5
:1010F0005646009FACF8007034F93E7024F83E303C
:10110000002FD8DAB3794D46002B3FF423AF0023EC
:10111000B371B6F9083006F10808581C3DD01A46DC
:10112000776903E08046591C3FF416AF03EB430197
:1011300007EBC100B0F802C01C461CF4004F9E46ED
:1011400037F93130EED0944280ED028B05D0A8F80B
:101150000030328927F8312034817246E3E738F8CD
:10116000393033813369EFF3108272B6D3E8CF0F91
:1011700001210028FAD1C3E8401F0028F6D1BFF3AF
:101180005F8F7388316928F83930009B73800023A2
:10119000C1E88F3F82F31088D4E640BF05B0BDECB4
:1011A000028BBDE8F08F2846CDE9022300F0A2FAB9
:1011B000029A039B10EB020E43EB010A26E7084656
:1011C0000B69029198470028C9D00299D1E9002300
:1011D00011E700BFAFF30080FFFFFFFFFFFFFFFF3E
:1011E00000800B408824002000000B40010F0010FD
:1011F0002DE9F84F364C25692DB1BDE8F84F0A218D
:101200003448FFF70FBEDFF8E4800321404600F0CA
:101210005FFA0326C4F80C80FFF7DCFB4FF0504C5C
:101220002D4B267003442361DCF800300F216370DE
:10123000636961801D834FF00405A3F878504FF077
:101240000505A3F890504FF00605A3F8A8504FF0FD
:1012500007050E214FF6FF7208274FF00A0EA3F87C
:10126000C0504FF001094FF00C0C4FF0020B4FF043
:10127000090A0D204FF00B05A3F868111749A28049
:10128000A3F808E1A160A3F848B0A3F8F0A0A3F880
:101290002051A3F838C1A3F85001A3F83090A3F867
:1012A0006060A3F8D8701A800D4B3046C8F82070E3
:1012B0000C49DC60FFF720FC49463046FFF7DAFBBB
:1012C000094B0A211F640348BDE8F84FFFF7AABD88
:1012D000740F0020B0240020CC190020FFFF100064
:1012E00088240020010F001000200B4000000B405C
:1012F00000487047740F0020F8B59DF82050044650
:1013000017461E4635B900F0FDF9874266EB01012C
:1013100000295CDB2169EFF3108372B6D1E8CF0FAF
:1013200001220028FAD1C1E8402F0028F6D1BFF3EE
:101330005F8FB4F90220656902EB4201002A4FEA8F
:10134000C10C206905EBC10139DB35F80CE0A4F8CC
:1013500002E04FF0000EC0E88FEF83F3108848885A
:10136000069B0130C0F30E00012838BF01200B613D
:10137000079B48804B61C1E9027640EA024023693D
:10138000EFF3108172B6D3E8CF7F0126002FFAD198
:10139000C3E8476F002FF6D1BFF35F8FA38825F80E
:1013A0000C30A2802369C3E88FEF81F310880122FB
:1013B000E368217803F501538A405A60F8BD0022A2
:1013C000C0E88F2F83F310884FF0FF30F8BD284618
:1013D000F8BD00BF0146F0B50069EFF3108772B6A3
:1013E000D0E8CF5F0124002DFAD1C0E8454F002D91
:1013F000F6D1BFF35F8FB1F902E04C690EEB4E0CF2
:10140000BEF1000F4FEACC05086904EBCC0C3CDBC5
:10141000665B4E800026C0E88F6F87F31088BCF8AB
:101420000200CCE902230130C0F30E00012838BFCE
:101430000120059BACF80200CCF81030069B40EA76
:101440000E40CCF814300B69EFF3108272B6D3E87B
:10145000CFCF0127BCF1000FF9D1C3E84C7FBCF11D
:10146000000FF4D1BFF35F8F8B886353A1F804E0C2
:101470000B69C3E88F6F82F310880122CB6809786B
:1014800003F501538A405A60F0BD0023C0E88F3F46
:1014900087F310884FF0FF30F0BD00BF034640894E
:1014A000B0EB214F37DD58690A1402EB420210B548
:1014B00000EBC2001C69EFF3108C72B6D4E8CFEFDA
:1014C0000122BEF1000FF9D1C4E84E2FBEF1000F8A
:1014D000F4D1BFF35F8F428889B292B28A4207D0BB
:1014E00000221B69C3E88F2F8CF31088002010BDE9
:1014F00042F4004242800121002218699971C0E83B
:101500008F2F8CF310881C78DA68084602F5015397
:10151000A140596010BD0020704700BF407870475F
:101520002DE9F04182B0064600F0ECF84FF47A73F2
:1015300004464FF0FF306FF00042E6FB0341A0424B
:1015400072EB01033ABF044615460D46A61F45F14E
:10155000FF37B44275EB07033CBF0026374600F067
:10156000D1F8301A67EB0101012871F1000106DAA8
:101570002046294602B0BDE8F04100F0FBB800F07B
:10158000C1F8864267EB010100290ADB0021174BF5
:101590003246009316483B460191FFF71BFF01308E
:1015A000E6D04FF0000C134A1349536A9F4204D807
:1015B000906AB042DCD29F42DAD10B68EFF3108020
:1015C00072B6D3E8CF8F5FF0010EB8F1000FF8D1FB
:1015D000C3E848EFB8F1000FF3D1BFF35F8F0B689A
:1015E000C3E88FCF80F3108820BFDEE7C50E001060
:1015F000740F002000000B40B02400202DE9F043C0
:1016000006460D4683B0EFF30584E4B23CB12D4BA2
:101610005A6AAA421CD2002003B0BDE8F0832A4FC8
:10162000D7F80C9097F80080484600F063F808F16E
:10163000040859F828301B1A301A65EB010198424A
:1016400071F1000110DB20BF1E4B5A6AAA42E2D39F
:1016500014BF012400249B6AB34234BF204644F0E7
:10166000010003B0BDE8F08300F04CF8864265EB62
:101670000101002914DB154B3846CDE90034324610
:101680002B46FFF7A7FE011E0ADD0E4B5A6AAA423F
:1016900016D39B6AB34211D30B48FFF7FFFEB6E7A0
:1016A000084B5C6AAC42B6D3641B18BF01249B6A2A
:1016B000B34234BF204644F00100ADE7AA42EBD16B
:1016C00020BFE9E700000B40740F0020C50E00109A
:1016D00010B4054B054C064AA04214BF1846581CCE
:1016E0005DF8044BFFF70AB9EC1D002000800B40A9
:1016F000685500100346416A0A46986A596A8A4248
:10170000FAD17047034B596A0A46986A596A91425E
:10171000FAD1704700000B4030B4154A536A9C461A
:10172000946A536A6345FAD1021959414FF0000592
:1017300028BF01250E4B5B6AB5B15A1C08BF1A467B
:1017400008D04FF0FF310A460948436A8B42FCD368
:101750008B4207D1064902E0486A984202D1886A62
:101760009042F9D330BC70479942EDD8F0E700BF02
:1017700000000B40074A536A9942FCD8994207D1AE
:10178000044B02E05A6A914202D19A6A9042F9D817
:10179000704700BF00000B40F8B5054606200E4616
:1017A00000F01CF9002842D0354A3648954214BF53
:1017B0004FF080624FF00062334B344902601A6090
:1017C0008C6832EA0404FBD12D4B4FF48071EB1A84
:1017D000B3FA83F32E4A5B09062022F8131000F0B7
:1017E000FDF8C300B3FBF6F30133DA0920D140263C
:1017F00001216962AA622F6BFB0722D42B460022CB
:1018000053F82C1F062003F5805422602F6300F04C
:10181000E5F840F2013103228000B0FBF6F0EB6AFC
:1018200083F0700303F07E0323602963AA64F8BD8C
:101830004FF6FE718A421BD922464FF6FF71154EB4
:10184000D7E740F2013205F540531A636B6AAC6A80
:10185000062004EB831400F0C1F80F4BA402A3FB95
:101860000023DB0A0021B4FBF3F0FFF755FFC5E7C7
:10187000C3F34503114603EB82161A46B9E700BFCE
:10188000008007400020024000300240000002407B
:1018900000250020C0FF3F00757B2B8F013A0539E2
:1018A000D200F8B5054642EA411443B1A3F1010361
:1018B000B3FA83F35B0944EA830343F002042E6B1B
:1018C000F3070AD42B4653F82C2F624002F06E0225
:1018D00003F580531A602E63F8BD40F2013205F51E
:1018E00040531A636B6AAF6A062007EB831700F058
:1018F00075F8054BBF02A3FB0030C00A0021B7FBFF
:10190000F0F0FFF709FFDDE7757B2B8F00EB400C54
:101910004FEA8C0C0CF1804C0CF5803CF0B516466F
:10192000DCF80420051FB2F5803F38BF4FF4803249
:10193000EDB238BFCCF80420012D2AD94FF400674E
:10194000254C0CF54052176054F82020B2B9DCF851
:101950000020012D82EA461202F0E0020CF58056CA
:1019600032602AD94FF4006144F820304FF48033BC
:101970000CF500521160CCF80430F0BD6769B7FB7C
:10198000F2FE0EF1010E0EEB4E0EBEF1030EFCD276
:10199000DDE70129D2D103240CF540521460DCF8B4
:1019A0000820D207FBD5DCF800200B4C82EA461257
:1019B00002F0E0020CF5805632600122DCF80050A3
:1019C0004D4005F00305356002FA01F1DCF808200E
:1019D0000A42FBD0C6E700BFF01D0020014B53F8C0
:1019E00020007047F01D002070B4039D04682D0393
:1019F00045EA03451B4B002CB3FBF1F3B2FBF3F6B6
:101A00001FDB194A194B904214BF4FF480424FF428
:101A10000042174C1A6003F580531A60A36832EA3B
:101A20000303FBD1212200F540530433016086609B
:101A30001A600268002AFCDA0822C5601A6070BCCD
:101A40007047036803F03F038B42DAD18368C3F326
:101A50000B03B342D5D1C36803F4EE23AB42D0D11C
:101A6000EDE700BF001BB7000080054000200240EA
:101A70000000024030B44FF080441C4B1C60E0B1C9
:101A80001B4CA3F54053DC611A4C40F0010044406C
:101A90001C62596298624FF080454FF0E061134B31
:101AA0001548164C1D60846019604AB930BC4FF06F
:101AB0000042A3F580531A607047114BD861EAE7E2
:101AC0004FF47A7303FB02F2B2F1807F2ABF6FF00A
:101AD0007F4313461A464FF080410A4C0848236062
:101AE000094B426030BC1960704700BF00B00D4028
:101AF000D3C007B02D3FF84F00A00140F3FFFF0116
:101B000000800D406024002000A00D40012300EB68
:101B10004000800000F1804000F5841041600360C7
:101B2000704700BF002370B5DB8A04460D460022D3
:101B300042E800F2520254BF1021042144F2522024
:101B4000984786462B462246F446BDE870400A2157
:101B50004FF48170604700BF0023DB8A002242E817
:101B600000F2520201D4102118470421184700BF87
:101B700008B503460846191E02DB1AB140F03000D2
:101B8000FFF7D0FF40F02000FAE700BF034AD2F889
:101B90002838002BFBD0BFF35F8F704700000E404A
:101BA0000021044B044ABFF35F8F43F8041B9342A8
:101BB000F9D170470C080E402C080E4010B44FF4B9
:101BC0008D704FF42A64064A064B07491460D060B2
:101BD00019605368002BFCDA5DF8044B704700BFB6
:101BE0000080044000A0044000B0FA00704700BF2D
:101BF00008B50148FEF76AFE8C55001038B5054C53
:101C0000054DAC4204D254F8043B9847AC42FAD399
:101C100038BD00BFC85400100855001010B4074864
:101C2000074C084B084A094904601A608B6832EA7D
:101C30000303FBD15DF8044B704700BF0020024056
:101C40007F3BEFEF00300240F6FFF303000002405D
:101C5000044BDB6CB3F5004F03D14FF48022024BF1
:101C6000DA64704700001150002011504FF0E0225C
:101C7000044BD2F8881D0B43C2F8883D10EE3004A7
:101C8000704700BF030330006FF06041044B054A0A
:101C900019609368DB4333F06043FAD1704700BFAB
:101CA000003002400000024010B545F25320FFF71B
:101CB00053FFBDE8104003460420184710B545F215
:101CC0005320FFF749FFBDE81040034601201847A5
:101CD000FEF7A4BE1449154B70B55C1AA610442E2D
:101CE000324628BF4422124D9200284603F0D0F914
:101CF000B4F5867F13D80F4AC6F1440012D02B19D1
:101D0000410803EBC101C3E9002208338B42FAD139
:101D1000C30704D520F00100304445F82020064BCD
:101D20009D6070BD4320F8E7000000101001001016
:101D3000000000201101001000ED00E0002370B54C
:101D40002B4C82B0C4F88430FFF738FF0122294BB6
:101D5000DA63636C012BFCD10321264A244B116307
:101D60009C6B012CFCD10226052521460523224A25
:101D700022480096FFF738FE21462B46204A21488C
:101D80000095FFF731FE0022042031461E4BFFF77D
:101D9000BDFD2146284600221C4BFFF7B7FD00225F
:101DA000082011461A4BFFF7B1FD00220920114609
:101DB000174BFFF7ABFD002206201146134BFFF730
:101DC000A5FD0022114B07201146FFF79FFD0420BF
:101DD000FFF704FE00240F4BA3FB0035AD0CE0B26F
:101DE00029460134FFF792FE062CF8D102B070BDEF
:101DF0000000014000300140002F685900000540FC
:101E0000008C864700800540001BB70080D1F00899
:101E1000006CDC0283DE1B4310B5044602F0E8FDD3
:101E200028B10346034A2344934200D810BD024818
:101E3000FEF74CFD000008209855001002F0E0BDB0
:101E400000B9704700F02EB910B5094B84B01C687A
:101E50004CB1034600914FF0FF3203A90548A0475B
:101E6000012004B010BD00F05FF9204604B010BDA1
:101E70005C240020411E001000BEFDE7074A034617
:101E8000106838B1064903448B428CBF4FF0FF30D5
:101E900013607047034908461160F3E7582000209B
:101EA000000008202025002008B5FFF7E5FF00BF4F
:101EB00038B5064C064DFFF7A1FEAC4204D254F8EB
:101EC000043B9847AC42FAD338BD00BF0855001018
:101ED0001055001003680846114618472DE9F041D7
:101EE0001546427D07468846002A46D0002D1DDD56
:101EF0000B780A2B23D0012D4FF0000C18D046464A
:101F0000012416F8012F21460A2A04F1010422D0E7
:101F1000A542F6D165450BDC08EB050313F8013C3F
:101F2000A3F10D03B3FA83F35B093B75BDE8F081C0
:101F30003B68A5EB0C0108EB0C009847ECE7037D30
:101F4000002BD8D1036802210F489847012DE3D018
:101F50004FF0010CD3E716F8013C0D2BD8D08C457F
:101F600008EB0C00A1EB0C0101DA3B689847022159
:101F700005483B689847A446CAE7294640463B685F
:101F8000BDE8F041184700BF185700102DE9F04791
:101F900082B00D4691461C460646FFF7B3FB4FF054
:101FA000FF3C6FF000472E4A821841F10003944530
:101FB00077EB03013CBF62463B462A4803F078FAC0
:101FC0006B1C804640D00CB3274F284B1C68B4B123
:101FD000B9F1000F1CD1DFF89C9001E0246974B1C5
:101FE0002368002BFAD0D9F800300BB19C42F5D110
:101FF00020462A463146B8472469002CF0D1B8F172
:10200000000F26D1284602B0BDE8F087184FDCE764
:102010004FF00A0ADFF85C9002E02469002CEED051
:102020002368002BF9D0D9F800300BB1A342F4D1CA
:102030002A4631462046B847012220460DF10701C5
:102040008DF807A0B847E8E7304603F097F8054653
:10205000B9E7044803F024FA284602B0BDE8F08747
:1020600040420F0028150020DD1E0010481E0020F1
:10207000D51E001054200020084A136823B90AE036
:1020800003F110021B6933B18342F9D129B91869F0
:1020900010601961704701B110607047481E002040
:1020A00000F06EBAF0B583B006468DF80700FFF772
:1020B00029FB4FF0FF356FF00044174A821841F1B9
:1020C0000003954274EB03013CBF23462A461348A4
:1020D00003F0EEF9124B07461C689CB1114D01E06C
:1020E00024697CB12368002BFAD02B680BB19C4289
:1020F000F6D1204601220DF10701FFF7EFFE24691A
:10210000002CEFD117B9304603B0F0BD034803F0FF
:10211000C7F9304603B0F0BD40420F00281500203B
:10212000481E00205420002038B5044603F026F84D
:10213000012305461A4620462946FFF727FF084B8C
:102140001C682CB163682BB198472469002CF9D125
:10215000284638BD2469002CF4D1284638BD00BF7C
:10216000481E0020704700BF0022014B1A707047C4
:10217000192500204B79FF2B0BD1887948B9CB79F1
:10218000012B07D1082A05D9034B8A7809201A7038
:1021900070470020704700BF1925002001207047BC
:1021A000012901D00120704708B5104B91881B7898
:1021B000994201D0002008BD5378012B08D0022B92
:1021C000F8D1002164220846FFF754FC012008BD25
:1021D0005188CB0548BF480AC1F3402258BF4FF091
:1021E000FF3001F07F01FFF7C3FC00BF192500207D
:1021F00000487047E4570010012907D15378012B9C
:1022000002D19388072B03D000207047012070472C
:102210001146A623014A01F039BA00BF3C5700100D
:102220000346012201481A70704700BF1C57001076
:1022300008B50B68B3F5966F00D008BD00224FF0CB
:10224000FF301146FFF794FC024A034B10601960FF
:10225000704700BFE01D0020E41D0020184B70B542
:102260001A68002A28D0EFF3108172B6D2E8CF4F57
:102270000120002CFAD1C2E8440F002CF6D1BFF3A4
:102280005F8F00220F4C186859602270C0E88F2FB2
:1022900081F31088002400250B4E3078FEF700FCF7
:1022A00020B9002400252046294670BD3078FEF76D
:1022B00007FC2046294670BD4FF47A740025EBE7F1
:1022C000802400201B2500201A250020014B1878AF
:1022D000FEF7F6BB1A25002038B5044600200D464F
:1022E00001F004FBA8B3002001F016FB88B3FFF750
:1022F00009FA4FF0FF3E6FF0004C174A821841F187
:10230000000396457CEB03013CBF724663461348CD
:1023100003F0CEF8E8B1002001F0E8FA58B9002146
:102320004FF0FF3000F00AFD6FF002040B4803F09D
:10233000B7F8204638BD002001F0EEFA0028EED0B4
:1023400021462A46002001F0F1FA04460028EDD18A
:10235000EAE76FF00204ECE740420F00B4240020EB
:1023600008B5FFF7CFF94FF0FF3E6FF0004C0F4A72
:10237000821841F1000396457CEB03013CBF724695
:1023800063460B4803F094F870B14FF0FF30002122
:1023900000F0D4FC002001F011FB0028F5D1BDE8CD
:1023A0000840034803F07CB808BD00BF40420F005E
:1023B000B42400202DE9F84380460F46FFF7A2F928
:1023C0004FF0FF356FF00044334A821841F10003AB
:1023D000954274EB03013CBF2A4623462F4803F085
:1023E00067F808B9BDE8F883002001F07FFA0028FB
:1023F00047D0002F40DD0025DFF8A890284E13E0DD
:102400002246002001F020FB002104464FF0FF305F
:1024100000F094FC002001F0D1FAFFF773F9C9E94C
:1024200000012544AF4227DD002001F02DFB7C1B7D
:102430008442A8BF044608EB0501002CE0D12146E8
:102440004FF0FF3000F07AFC204601F0B7FA20464A
:1024500001F04CFA80B1204601F016FB0028E1D1D2
:10246000FFF750F9D9F80030D9F804209B1942F150
:10247000000283428A41D5D20848BDE8F84303F000
:102480000FB800200021074BC3E90001BDE8F84365
:10249000024803F005B800BF40420F00B4240020FA
:1024A00020A10700B016002030B5002185B02E48CD
:1024B00003F002F8F0B92D4B1A68CAB1EFF310819E
:1024C00072B6D2E8CF5F0124002DFAD1C2E8454FA1
:1024D000002DF6D1BFF35F8F254C1D68227859601F
:1024E000D3B201222270C5E88F0F81F31088CBB1DF
:1024F00005B030BD00214FF0FF3000F01FFC002080
:1025000001F00AFA0446184802F0CAFF002CEFD086
:10251000184B1B68002BEBD0174A106805B0BDE8BC
:1025200030401847FEF7E4FE0446FFF7EBF84FF0A3
:10253000FF3C6FF0004510F57A7241F100039445BD
:1025400075EB030138BF2B464FF000014FF001053A
:1025500020460A4C38BF6246CDE901150094FEF7CB
:10256000CBFE05B030BD00BFB42400208024002085
:102570001B250020E01D0020E41D00205D2200102E
:102580004FF0504330B585B01C68FEF7B1FEFEF742
:10259000C5FFA04202D0002005B030BD00212A4B6B
:1025A00008461B7801F038FD28480368002B47D007
:1025B0000120FEF723FC0346254C2649C0B22370B8
:1025C000FEF79AFA20780121FEF754FA0E20FEF762
:1025D00083FA40BB204B0125C3E90000FEF788FECB
:1025E0000446FFF78FF84FF0FF3E6FF0004C10F5F8
:1025F0007A7241F1000396457CEB03014FF0000134
:102600002046164C3CBF72466346CDE90115009446
:10261000FEF772FE0028BEDB01211148FFF72CFDFA
:10262000012005B030BD0120FEF7E0F901460A485F
:10263000FEF740FC00220E200A49FEF78DFAEBE778
:10264000FEF71CFCB4E700BFFC580010B4240020C7
:102650001A250020A9240010802400205D220010EB
:102660008C0F0020CD2200100048704780580010C9
:10267000004870472C58001038B5184B04461A789B
:102680000AB344B940F209424FF44173144D6A80D1
:1026900013482B8038BD052C1DD8124B104D53F814
:1026A000241028460023013903E0132B20F8022FC1
:1026B0000ED011F8012F0133DBB2002AF5D15B00F7
:1026C00043F44073E4E71121184600F025F8D8E7F9
:1026D0004FF44A73DCE7002038BD00BF042500201A
:1026E000201E00201458001000B545F247308BB072
:1026F000FFF732FA01220346092101A89847DDE9D4
:102700000332044912BA1BBAC1E900230BB05DF8C9
:1027100004FB00BFA8240020012901F1FF3300F0D1
:10272000B3805D490A784FEA121C9F2A8CBF0CF1D6
:10273000370C0CF1300C012B80F800C000F0A780A2
:1027400002F00F02092A8CBF37323032022B42705E
:1027500000F09D804A784FEA121C9F2A8CBF0CF132
:10276000370C0CF1300C032B80F802C000F08F8086
:1027700002F00F02092A8CBF37323032042BC270AC
:1027800000F085808A784FEA121C9F2A8CBF0CF1DA
:10279000370C0CF1300C052B80F804C077D002F018
:1027A0000F02092A8CBF37323032062B42716ED0AD
:1027B000CA784FEA121C9F2A8CBF0CF1370C0CF11F
:1027C000300C072B80F806C061D002F00F02092AF6
:1027D0008CBF37323032082BC27158D00A794FEA99
:1027E000121C9F2A8CBF0CF1370C0CF1300C092BFA
:1027F00080F808C04BD002F00F02092A8CBF373294
:1028000030320A2B427242D04A794FEA121C9F2A78
:102810008CBF0CF1370C0CF1300C0B2B80F80AC07C
:1028200035D002F00F02092A8CBF373230320C2B20
:10283000C2722CD08A794FEA121C9F2A8CBF0CF1ED
:10284000370C0CF1300C0D2B80F80CC01FD002F0AF
:102850000F02092A8CBF373230320E2B427316D04A
:10286000CA7911099F2A8CBF373130310F2B817300
:102870000DD002F00F02092A94BF30323732102BEC
:10288000C27318BF103002D0002303707047184481
:1028900000230370704700BFA824002070B500F02B
:1028A0002DF90C234026194CFF22A3670E2018494E
:1028B000FEF752F932460021164802F071FB01255D
:1028C000002380211348144A4184457006830687FB
:1028D00082604360136042F8043C80F8213080F845
:1028E0003B3043620D4B4FF00056C360C362803BE8
:1028F000836202F0D1FD4FF480320949094B25640F
:102900002846E664C4F89010DA6470BD00001150E7
:102910009D0300205C200020840010500001105016
:1029200010D001000020115001210E20FEF7A2B8A6
:1029300000220248114600F001B900BF7C200020AF
:10294000044B197021B14FF40032034BC3F89020AF
:10295000704700BF16250020002011500B785B0641
:1029600002D14B78052B00D070474B88014ADBB26F
:102970001360704700001150CB782DE9F04103F04F
:10298000030EBEF1010FC3F301005BD0002791F8E5
:1029900002C0344C0CF07F025600898806EBDC1331
:1029A00004EB43134FEADC15D876C1F30A0185F036
:1029B000010083F802C019835870DF70D3008DBB0B
:1029C0002948043304EB821C03EB0008CCF8088090
:1029D0001F5082B3254BD2001344CCF80430244B53
:1029E0003F311A6821F03F01BEF1020F08BF4900D4
:1029F000114419601F4B771904EB47179942FA608D
:102A00002BD82E4404EB4613D97E82F0A04282F4E8
:102A100080125B6842EA816242F000421A60012043
:102A2000BDE8F081104804EB821C0344CCF8283048
:102A300040F832704AB900220F4904EB4513D960BF
:102A40005A60ECE70020BDE8F081D20002F1A0421C
:102A500002F58012CCF82420C1E7FFF7C9F8FA6824
:102A6000CFE700BF5C200020800010500400105011
:102A700064240020FF0F10500001105002F00CBD24
:102A80008C4608B5114607481A460CF07F034FEAFA
:102A9000DC1C0CEB430C00EB4C1000F04FF8012059
:102AA00008BD00BF5C20002011F07F0205D1002985
:102AB0000CBF02200120064B9866C909054B01EBAB
:102AC000420003EB40104FF40062002102F0ECBC26
:102AD000002011505C20002011F07F0300D17047CE
:102AE000002205485B0003EBD11300EB43106FF4A9
:102AF0000061C27002F0D8BC5C2000204FF0805210
:102B000009480A4908B50A4B02600A609968C94336
:102B100011F08051FAD14FF48052064802F040FA89
:102B20000922054B5A6708BD0020024000300240D0
:102B300000000240000010500000115000234FF030
:102B4000010C10B580F81AC08282C382016104466C
:102B500002F0B6FC20B14FF40032074BC3F89020CE
:102B6000204602F08DFC10B10123237710BD2046D2
:102B7000BDE8104002F08CBC002011502DE9F0415E
:102B800000241D4E054623463278DFF878801B4F1F
:102B90000DE03B6813EB441324D0DB6828469847CC
:102BA00032780134E4B2511CA142234606DBA24232
:102BB000A3EB0203EDD808EB4313EEE75422002108
:102BC0000F4802F0EDF94FF0FF330D482022041DAD
:102BD0004360C4E90133E360FF21BDE8F0411430F4
:102BE00002F0DEB94FF0E023D3F8F03DDB0700D56B
:102BF00000BEBDE8F08100BF152500202818002088
:102C0000F819002094580010704700BF704700BFAB
:102C10000020704700207047704700BF704700BF1A
:102C2000704700BF704700BF024B5878003818BF8C
:102C300001207047F8190020024B1878C0F380007B
:102C4000704700BFF81900202DE9F047DFF8E4A035
:102C50009AF80030FF2B56D10E4600293ED00021B5
:102C600054220746294802F09BF90022284C294BA0
:102C700020461A70FEF702F9274B28481C60284CA2
:102C8000FEF70AF9204601F0ABFD264A264B1460F8
:102C900023B12648FFF7C4FA254B18600024234DC2
:102CA00023462A78DFF89090DFF884800EE0D8F889
:102CB000003013EB441311D05B687BB198472A783E
:102CC0000134E4B2511CA142234611DBA242EED8EA
:102CD0009B1A09EB43135B68002BEFD14FF0E02305
:102CE000D3F8F03DDB0700D500BE0020BDE8F0873B
:102CF000314638468AF80070FFF7D0FD0028EDD045
:102D00003846FFF711FE0120BDE8F087F8190020D2
:102D1000F0190020172500204C1A0020B80F0020C1
:102D2000A40F0020501A0020212200101525002099
:102D300028180020C00F0020945800102DE9F04FF3
:102D4000DFF8C8928BB099F80030FF2B00F0F180CB
:102D5000A84CA94DDFF8B0A2DFF8B4B226687369B9
:102D6000EFF3108272B6D3E8CF0F01210028FAD119
:102D7000C3E8401F0028F6D1BFF35F8FB261304631
:102D800007A901F077FB00237269C2E88F3FB3699E
:102D900083F31088002800F0CC809DF81D30013BA3
:102DA000072B00F27D83DFE803F0A7B1959D8E35F8
:102DB0000A04089B002BD1D009989847CEE79DF8CC
:102DC000201001F07F0605EB460000EBD11090F8D3
:102DD000343023F0010380F8343090F8343023F09D
:102DE000040380F83430002E00F0A680037D9AF8AA
:102DF0000020934280F09380804A126812EB4313C4
:102E000000F090809E699DF82120099B9DF81C0090
:102E1000B047A3E79BF80030002B00F083809BF8BD
:102E20000030013BDBB28BF800309BF8003003F040
:102E3000FF00002B92D1704F9DF81C803B7843F02F
:102E400001033B7097F8343060F3000387F83430A7
:102E500097F8343060F3820387F8343097F83530D0
:102E600060F3000387F8353097F8353060F382035C
:102E700087F8353000F06CFC9DF8203003F06002DC
:102E8000602A6CD0402A7CD003F01F03012B00F095
:102E9000C180022B00F08180002B60D1202A00F03D
:102EA000E981002A5BD19DF82130092B57D8DFE852
:102EB00013F0B001A2015600C101560095016B014B
:102EC00056006001F4002B78D9077FF547AFFFF774
:102ED000A9FE43E7EB78DA077FF540AF0898FFF7E4
:102EE00095FE3BE72B78D8077FF538AF2878C0F3FD
:102EF000C000FFF795FE31E79DF81C00FFF73EFE8E
:102F000000F01CFC9DF82030AB7027E79DF81C00FA
:102F1000FFF734FE00F012FCFFF780FE1EE7501CA6
:102F2000984211DA4FF0E023D3F8F03DDC0700D5EA
:102F300000BE0BB0BDE8F08F099B9DF821209DF8E5
:102F40001C0000F019FC09E79B1A2D4A02EB431301
:102F500058E7FFF78DFB0246002840F082814FF0D2
:102F6000E023D3F8F03DDE0700D500BE9DF81C003D
:102F70000021FFF799FD80219DF81C00FFF794FDCB
:102F8000ECE6204800F0E4FB0121404608AAFFF7E8
:102F900033F900287FF4E2AEE8E79DF8241011F041
:102FA000700FDCD101F07F0607EB4600164B00EBFB
:102FB000D1101B78007D7600019698424FEAD11619
:102FC000009659D35E1C8642C0F26681C01A0C4B33
:102FD00003EB4016002A00F06381706900F0B8FB33
:102FE00001214046736908AA984700287FF4B6AECD
:102FF000BCE700BF501A0020F81900202818002054
:1030000094580010F921001015250020C00F002051
:10301000172500209DF824300F2BA7D8AE4A3B443B
:103020001B791278934232D3511C99429EDBAB4EEE
:103030009B1A06EB4316706900F08AFB012140469B
:10304000736908AA984700287FF488AE9DF820305D
:1030500013F060068AD19DF821300A3B012B85D8F8
:1030600000F076FB9DF821300A2B00F0F2814046FB
:1030700008A900F0F1FA71E6994B1B6803EB4016C2
:10308000002A00F00D81002E3FF470AFA5E7944AAE
:10309000166816EB4316CED168E77B789DF8226060
:1030A0009E4200F04F817B78002B40F0BE817E7005
:1030B000002E00F04581701EC0B2FFF7D9FA03461A
:1030C000002800F05F814278022A40F05B81C179DC
:1030D00003F10906C1F340121201C1F3801142EA63
:1030E00041123146387820F0300002433A705A8855
:1030F000CDF80C809A180192019B8B4240F2A4817A
:103100004A780B2A00F0AF810123042A40F03A816B
:103110000026019A0096521A92B202926E4A0493C5
:1031200012781DE06E4B1B6813EB461800F02A81E5
:10313000029AD8F81030039805919847082802465B
:10314000059906F1010303D90298904280F0FF80AF
:10315000DEB2614B00961A78531C9E4200F3128136
:10316000009BB242A3EB0202DCD85C4B03EB42189B
:10317000DEE77B7840468DF81A300DF11A02012304
:1031800008A900F083FAE9E5BDF82200030A013B33
:10319000020AC0B20E2B3FF6E9AE01A151F823F0AE
:1031A000B533001051320010F13300106D2F0010B4
:1031B0006D2F0010D3330010513200106D2F00100E
:1031C0006D2F00106D2F00106D2F00106D2F00104F
:1031D0006D2F00106D2F0010A733001008A800F00D
:1031E000BDFA40469DF82210FFF7A2FB3B7843F062
:1031F00002033B70B2E5BDF82230012B7FF4B6AE7E
:103200003B78404623F0080308A93B7000F024FAFD
:10321000A4E540463B789A0802F00202C3F340134B
:103220001343ADF81A300DF11A02022308A900F079
:103230002DFA93E5BDF82230012B7FF497AE3B7851
:10324000404643F0080308A93B7000F005FA85E505
:10325000022A3FF47EAEFFF7DDFC024600283FF471
:1032600085AE4046538808A900F010FA00287FF484
:1032700075AD7BE69DF824300F2B3FF677AE164AEE
:103280003B441B79127893421DD2154A166816EBFF
:1032900043167FF4A2AE69E6002A7FF467AE0026EB
:1032A0009DF8212002F0FD03012B1BD0002A7FF4A2
:1032B00056AE019B009A3B44134493F83430404689
:1032C000C3F34003ADE7511C9942FFF64FAE034EE6
:1032D0009B1A06EB431680E6152500209458001033
:1032E00028180020BDF82230B3B9012A99F800004F
:1032F00000F08680FFF7D8FB019B009A3B44134403
:1033000093F8342042F0020283F8342093F83420FA
:1033100042F0010283F83420002E3FF41FAD7069A3
:1033200000F016FA7369012108AA40469847002068
:1033300000F00EFA97F83530DF073FF50FAD96E64F
:10334000FFF76CFC404608A900F086F906E5049BEF
:10335000012B00F09E80002B00F08A80002091F865
:10336000028005E08CF804605FFA80FC63457FD939
:1033700008EB000C57FA8CFC9CF804E00130BEF11D
:10338000FF0FEFD04FF0E023D3F8F03DDA0700D580
:1033900000BE4FF0E023D3F8F03DDB0700D500BEC0
:1033A00000237B70E2E5FEF723FF024600287FF44E
:1033B00058AFDBE5FFF758F9024600283FF4CFADE0
:1033C0004046122308A900F061F900287FF4C6AC3A
:1033D000CCE5FFF71DFC024600283FF4C7AD404690
:1033E000137808A900F052F900287FF4B7ACBDE5C6
:1033F000BDF82410FFF740F902460028EFD1B5E5EB
:103400000293FFF769FB019A009B3A441A4492F831
:103410003410029B63F3410182F8341092F83410A7
:1034200063F3000182F8341076E700214046FFF78D
:1034300087FA4046FFF722FBBB7840460093FFF730
:103440009DFB009BBB7032E6DDF80C80FFF7E4FBD0
:1034500078E74046012308A90DF11A028DF81A6099
:1034600000F014F97AE40A78CB7811444A784CE6F3
:10347000334610480492029100F076FE0E4B049AF7
:1034800002991B781144009A01339342BFF634AE7F
:1034900078E7D8F810C00948844508BF02235DE7E3
:1034A0004FF0E023D3F8F03DDB077FF557AC00BECB
:1034B00054E400BF0C1A002015250020893B0010A1
:1034C0002DE9F84F0A9F002A40D00C461E461546AB
:1034D0004FF0000ADFF87C90DFF87C8018E020468F
:1034E00098F8021099F800B000F00EFEE0B1214605
:1034F0005846FFF741FAF0B1A2780AF1010AD10962
:1035000016BF0B9B3A701A702278AA4514441DD03E
:103510006278052A0FD1E17801F00301B1420AD1A6
:10352000A27812F0700FDAD04FF0E023D3F8F03D1C
:10353000DA0700D500BE4FF0E023D3F8F03DDB07FB
:1035400002D40020BDE8F88F00BEFAE70120BDE8F4
:10355000F88F00BFC00F0020F819002038B58B7815
:1035600013F0700F08D04FF0E023D3F8F03DDB07E5
:1035700000D500BE002038BD074A084B0C4608465F
:1035800091781D7800F0C0FD0028ECD02146284637
:10359000BDE83840FFF7F0B9F8190020C00F00204F
:1035A0000B46064A06481168DA09343203F07F03F5
:1035B00002EB4303184400F061BD00BF4C1A002029
:1035C000F81900200B46064A06481168DA09343219
:1035D00003F07F0302EB4303184400F079BD00BF02
:1035E0004C1A0020F819002010B5194801F07F0C82
:1035F00000EB4C0000EBD11090F834C01CF0010F30
:1036000008D04FF0E023D3F8F03DDA0700D500BE34
:10361000002010BD00F1300494F804C00D484CF0B7
:10362000010C007884F804C0FFF72AFA0028F0D1D2
:103630004FF0E021227960F300022271227960F3D9
:1036400082022271D1F8F03DDB07E1D500BEDFE751
:10365000F8190020C00F002030B50B4C8C46A64650
:103660000546086849680023AEE803009CF800108E
:103670002846C943C4E90233BDE830401A4601F088
:103680008001FFF7B1BF00BFB81900202DE9F0415C
:10369000284F4FF00008BE468C4606460868496829
:1036A000BA60AEE80300A7F80E801546BCF8062005
:1036B000934228BF1346BB819AB11C4633B3DDB198
:1036C00097F90030402C28BF4024002B29DB4146CD
:1036D00023463046184AFFF787FF68B10120BDE84E
:1036E000F0819CF800101346C943304601F0800178
:1036F000FFF77AFF0028F1D14FF0E023D3F8F03D37
:10370000DB0700D500BE0020BDE8F0811A463978FD
:1037100001F0800123463046FFF766FF0028DDD127
:10372000EAE722462946044801F0B2FC8021024A19
:10373000F0E700BFB8190020781900200022034BE1
:10374000C3E90022C3E902221A617047B8190020B8
:10375000014B1861704700BFB819002030B4024611
:10376000044C0025234600685168C4E9025530BC6A
:1037700003C37047B819002070B53D4CC9092278C1
:103780000646B1EBD21F1D4682B017D053B14FF0A1
:10379000E023D3F8F03DDB0702D4002002B070BD77
:1037A00000BEFAE72146FFF7D9F823691BB122468C
:1037B000032130469847012002B070BD94F90030D3
:1037C000002B06DBA0680028E7D02A46294901F033
:1037D0005FFCE089A168E388284480B229448342E1
:1037E000E081A16016D03F2D14D9A28994F9004040
:1037F000131A9BB2402B28BF4023002C27DB90429A
:103800004FF0000131D01B4A3046FFF7EDFE002893
:10381000D1D1BCE7236923B102213046144A98472D
:1038200060B121780023C94330461A4601F0800177
:10383000FFF7DAFE0028AAD00120BDE70146304696
:10384000FFF732F980213046FFF72EF9B3E79042B7
:1038500008D01A460748019301F01AFC8021054A56
:10386000019BD1E780210022CEE70A46CCE700BFCA
:10387000B8190020781900202DE9F0410446FFF71F
:10388000D3F908B9BDE8F081FFF7D6F9054600285D
:10389000F8D1C82304FB03F3124EF718F978002976
:1038A000F0D010331E44304600F0D2FD3F28E9D955
:1038B0002846F978FFF774FE0028E3D0304600F080
:1038C000C7FD3F28F97808D9074A284602EBC412F9
:1038D0004023BDE8F041FFF787BE2846BDE8F04130
:1038E000FFF770BEB01800202C18002010B5044659
:1038F000FFF79AF908B9002010BDFFF79DF90028DD
:10390000F9D1C822034B02FB0433187900F00100FF
:1039100010BD00BFB0180020C82208B5024B02FB42
:10392000003000F07BFD08BDC01800202DE9F843F1
:103930004FF6FF73C8249A4228BF1A4600FB04F4CE
:10394000DFF8748004F110054544064692B228461B
:1039500000F0DAFD0746FFF767F910B93846BDE811
:10396000F883FFF769F981460028F7D1A04498F859
:103970000330002BF2D0284600F06AFD3F28EDD935
:10398000484698F80310FFF70BFE0028E6D02846BB
:1039900000F05EFD3F2898F8031007D9054A484615
:1039A000402302EBC612FFF71FFED7E74846FFF79A
:1039B00009FED3E72C180020B01800202DE9F041B3
:1039C0000446FFF731F910B90020BDE8F081FFF798
:1039D00033F905460028F7D1C82604FB06F6DFF8C0
:1039E000648006F124074744384600F017FD00289C
:1039F000EAD0B044284698F80210FFF7D1FD00281D
:103A0000E2D00F4E384606EBC4163146402200F095
:103A10007BFD98F80210044668B1034632462846FA
:103A2000FFF7E2FD50B94FF0E023D3F8F03DDB079C
:103A3000CAD500BEC8E7FFF7C5FDC5E72046C4E705
:103A40006C180020B018002038B54FF6FF75C82359
:103A5000AA4228BF2A460B4C92B203FB00440546FB
:103A6000204600F00FFE034620461C4600F0D6FC20
:103A70003F2801D8204638BD2846FFF79FFF204643
:103A800038BD00BFD4180020C82208B5024B02FB85
:103A9000003000F0DDFC08BDD4180020F0B5002493
:103AA00083B0C8220021174801F07AFAFF234FF4AF
:103AB000E13108221448047012480094074643710B
:103AC0008160827300F1380101234022103000F040
:103AD00075FC0123402207F17801009307F1B80635
:103AE00007F1240000F06AFC07F1C0053046FDF73D
:103AF000C5F92846FDF7C2F9C7E90746C7E90C54DE
:103B000003B0F0BDB0180020AC1800200A4A116BB9
:103B1000136A61B13BB10023C2E90C33D3610023C6
:103B20001362012070470120C2E90C337047002B5B
:103B3000F7D0D161F3E700BFB0180020002210B524
:103B40000E4C0F48237802600271DA0707D59B07F5
:103B50000BD5BDE8104001210A4800F05DBE1030D1
:103B600000F03EFE23789B07F3D4064800F038FEB1
:103B7000BDE810400121034800F04EBEAC18002003
:103B8000B0180020D4180020F0B54B7983B0022B78
:103B900002D18B79022B03D00025284603B0F0BD5B
:103BA000274FBB783BB14FF0E023D3F8F03DDB0764
:103BB000F2D500BEF0E78B7806463B700B78CC1848
:103BC0006178242908BF092507D036E023781C44F2
:103BD00061782B4424299DB207D1AA42F6D2002055
:103BE000FFF74AFE284603B0F0BD0B46052916D064
:103BF000042BF4D163790A2BF1D1124B277801936E
:103C000001330093022330461A46E119FFF758FCAE
:103C10000028C8D00E3517FA85F5ADB2DFE721468A
:103C20003046FFF79BFC0028BDD0A3787B7023783B
:103C30005A191C44637895B2DAE70B460925D5E793
:103C4000B0180020B2180020137803F06003202B76
:103C500008D170B5264C938894F800C09C4503D0D9
:103C6000002070BD002070475378203B032BF7D80D
:103C7000DFE803F027230D0201292ED003291ED1EE
:103C80001C4BE3B100205188AFF3008017E00129FD
:103C900023D0032913D15588174805F0010686F073
:103CA0000101257100F0B8FD144B43B131460020ED
:103CB000C5F34002AFF3008001E0012911D00120DB
:103CC00070BD01290DD00329F9D10D4B002BF6D081
:103CD00000200C49FEF7ACFAF1E71146FFF7BCFCF7
:103CE000EDE711460723074AFFF7D0FCE7E700BFDF
:103CF000B018002000000000D418002000000000D0
:103D000031220010B81800202DE9F843354E0C463A
:103D1000F27807468A421D463DD0B3788B4212D0D6
:103D20004FF0E023D3F8F03DDB0732D40020BDE8AC
:103D3000F8832D4B23B12D4800F080FB00284DD097
:103D40000020FFF799FDB378A34201D00120EEE7F0
:103D5000274B13B10020AFF300800020FFF72EFEA9
:103D60000028F3D1234800F059FB0028EED1002DA4
:103D7000ECD015F03F05E9D13846B178FFF710FCDB
:103D80000028E3D02B462A463846B178FFF72CFCB2
:103D9000DCE700BECAE79AB2174906F1100000F04E
:103DA00071FC164B002BC4D07379FF2BC1D0002DB2
:103DB000BFD0DFF8448008EB050902E0C845B8D061
:103DC000737918F8012B9A42F8D1084800F036FBB5
:103DD0000028F3D17179AFF30080EFE7AFF30080F3
:103DE000AEE700BFB018002000000000C01800209F
:103DF00000000000D41800202C1800200000000053
:103E0000F0B54FF4137285B00021124801F0C8F8E4
:103E1000402600234FF480750E4F0F4C07F5A67215
:103E20001946CDE90246009201951A4607F59470AD
:103E300000F0C6F90023384607F128013444009108
:103E400001221946CDE902460195043000F0B8F987
:103E500005B0F0BD941B0020141B002008B50548D8
:103E600000F0DAF9034BA3F5927000F0D5F90120C8
:103E700008BD00BFBC1C002038B50025064C04F569
:103E80009870257000F0ACFC04F10C0000F0A8FC68
:103E900084F82951657138BD941B00202DE9F84341
:103EA0004B79FF2B51D1354E96F82931002B4CD14F
:103EB00096F80580B8F1000F47D18B780C783370F5
:103EC0000B790F460C44ABB38146A51803E0A5421D
:103ED00030D923781C446378052BF8D1AC4229D221
:103EE00021464846FFF73AFB40B3A378DB092FD1C0
:103EF000234800F075FCA37896F8282186F829312C
:103F0000A3884846C3F30A03A3F50073B3FA83F307
:103F10005B0963F341021B4986F8282100F0EAF9A6
:103F200060B123783A7908F101081C445FFA88F3FC
:103F30009A42D0D8E11B88B2BDE8F8834FF0E02365
:103F4000D3F8F03DDB0700D500BE0020BDE8F883C4
:103F50000D4800F045FCA37832797371A3880B49B2
:103F6000C3F30A03A3F50073B3FA83F35B0963F3A6
:103F700041020020327100F085F9D2E7941B002045
:103F8000C41C0020BC1C0020A01B0020981B00208B
:103F900070B51B4C064694F829C11D468C4511D0BE
:103FA00063798B4201D0002070BD164B1BB10020FD
:103FB000A9B2AFF300803046134900F063F9C8B1ED
:103FC000012070BDB4F8343163B9104B23B1002027
:103FD0000F49AAB2AFF3008030460E4900F08AF9CB
:103FE0000120EEE7D4F82C11AAB204F5987000F085
:103FF00049FBEAE72A463046034900F00FF9DFE7BC
:10400000941B002000000000981B0020000000000E
:10401000141B0020BC1C002010B582B0C9B10128BF
:104020000CD80B7853B1144C012B235402D001202F
:1040300002B010BDFEF708FE0028F8D14FF0E023D3
:10404000D3F8F03DDB0702D4002002B010BD00BE63
:10405000FAE70124084601A9ADF80440FEF7F4FD93
:1040600038B94FF0E023D3F8F03DDA07EDD500BEC4
:10407000EBE7014B1C70E8E7EC190020F8B503787A
:1040800013F001041AD1037805465A07C3F38007D9
:1040900001D52046F8BD0E464FF0FF31304601F005
:1040A000F3F92B7813F001040BD12B785B0709D4BB
:1040B0002B78012443F004032B7003E000242046F6
:1040C000F8BD3C46304601F0EBF92046F8BD00BF94
:1040D00070B50C4605464FF0FF31204601F0D4F98B
:1040E0002B78C3F380065B0708D52B7813F0010308
:1040F00011BF00262A7863F382022A70204601F05D
:10410000CFF9304670BD00BFC378828803F003004A
:104110000228C2F30A0215D003280AD001281CD1B4
:10412000022940F2FF3308BF4FF4806393420DD35E
:104130007047022914BF40234FF48063934205D394
:104140000120704702290AD0402AF9D94FF0E02314
:10415000D3F8F03DDB0700D500BE00207047B2F574
:10416000007FEDD0F2E700BF0A44914226D291F8D9
:1041700001C0BCF1050F05D091F800C061448A422E
:10418000F5D8704700B591F802C00CF07F0E00EB37
:104190004E0E4FEADC1C0EF80C3091F800C0614462
:1041A0008A4209D991F801C0BCF1050FEBD091F812
:1041B00000C061448A42F5D85DF804FB704700BF37
:1041C0002DE9F0418E4682B0009390F800C0089E21
:1041D000BDF824706EF3000C0446154601233146E9
:1041E0003A4600F808CBBDF82C8000F0E7F806B19D
:1041F0003FB901200A9BA4F80280636002B0BDE8C9
:10420000F08104F11C063046FCF738FE0DB135464E
:104210000026C4E90556ECE701207047F8B50746CB
:10422000084640F2FF13154610F8082B0C4612F012
:10423000020F0CBF3F261E4600F0F0F828B925B14A
:104240002E4202D12378DA0701D50020F8BD384686
:104250006178FFF7A5F90028F7D0237813F0010360
:1042600007D04FF0E023D3F8F03DDB07EDD500BEDB
:10427000EBE71A4638466178FFF7B6F90028F0D028
:10428000F8BD00BF70B501F10805064628460C468A
:1042900000F0C4F810B12378DA0701D5002070BD12
:1042A00030466178FFF77CF90028F7D0284662880D
:1042B000616800F029F92378054603F0010340B155
:1042C00073B14FF0E023D3F8F03DDB07E6D500BE35
:1042D000E4E7002BE2D130466178FFF773F9DDE7C0
:1042E0000346626830466178FFF77EF90028E8D01F
:1042F000284670BD8A892DE9F0410B780C460646A8
:1043000022B9DD0734D50020BDE8F08104F10807AB
:104310009907384647BF4FF47E484FF400754FF673
:10432000C078402500F094F88542ECD82378DA076D
:10433000E9D430466178FFF733F90028E3D03846F6
:1043400000F086F82378854203F001032DD8BBB92D
:10435000658808EA0008454528BF454661785DB391
:1043600062682B463046FFF73FF948B12846CBE755
:104370004978FFF715F90028C5D02378D80707D565
:104380004FF0E023D3F8F03DDB07BCD500BEBAE721
:10439000638861783BB162683046FFF725F90028F1
:1043A000EED06088B0E71A46F6E7002BABD1304676
:1043B0006178FFF707F9A6E72A46D2E72DE9F04131
:1043C000B2F5004F9DF8188024D80446C0681746FF
:1043D0000E461D4618B14FF0FF3101F055F8206927
:1043E00018B14FF0FF3101F04FF80022C5F30E0372
:1043F000E06843EAC83362812660A780E3802281B7
:1044000008B101F04DF8206908B101F049F8012028
:10441000BDE8F0810020BDE8F08100BF038942893A
:104420009BB292B28088934236BFC2EB40029B1A85
:104430009B189BB2984228BF18467047028943894F
:1044400090B29BB2C01AB0FA80F04009704700BF2A
:10445000038942899BB2808892B2934236BFC2EBF5
:1044600040029B1A9B189BB2984286BFC01A80B22A
:104470000020704738B5044600690D4618B14FF06A
:10448000FF3101F001F82189638989B29BB2A288CA
:10449000994236BFC3EB4200C81A401880B250B3ED
:1044A000824209D291422CBF891A89188BB29A4252
:1044B000638103D89B1A9BB29A42FBD9E288216898
:1044C000C2F30E0202FB0311284600F0E1FD6189F0
:1044D000012589B24B1C9BB29942A2880ED90023B8
:1044E00002FA05F15B1A9BB22069638108B100F002
:1044F000D7FF284638BD054663899BB2B3EB420F10
:104500004FEA4201F0DBEDE72DE9F047064600698E
:104510008846914618B14FF0FF3100F0B5FF33895E
:1045200074899BB2A4B2B588A34236BFC4EB4507D9
:104530001F1BFF18BFB2002F4AD0BD4240D3B94560
:1045400028BFB946A5421FFA89F703D8641BA4B255
:10455000A542FBD9B6F806A02B1B31689BB2CAF363
:104560000E029F42924602FB041123D913FB02F371
:104570001FFA83F94A4640467D1B00F089FD621907
:1045800012FB0AF2316808EB090092B200F080FDDC
:104590007289B58892B2D3199BB29A421AD96A002D
:1045A0009B1A9BB23069738108B100F079FF3846DD
:1045B000BDE8F087404607FB02F200F069FDE7E73F
:1045C000AB422CBF5B1B5B199CB22F467481B6E7D4
:1045D00073899BB2B3EB450F4FEA4502E2DBDFE79D
:1045E000F8B50446C0680E4618B14FF0FF3100F030
:1045F0004BFF2589238961899BB289B2A2888B42AE
:1046000036BFC1EB42015B1A5B189BB29A42ADB256
:1046100008D8E779FF0905D1E06808B100F040FF4C
:104620003846F8BD954228BF2B4618D39B1A9BB23B
:104630009342FBD2E2882068C2F30E0202FB030021
:10464000314600F025FD6B1C9BB29D42A28812D919
:10465000002351005B1A9BB201272381DCE7E2882B
:104660002068C2F30E0205FB0200314600F010FD87
:104670000135A288ABB2B3EB420F4FEA4201EBDB4C
:10468000E8E700BF2DE9F04F174683B0002A75D048
:104690000646C068894618B14FF0FF3100F0F4FEBD
:1046A000F379B6F808807289DB09B5881FFA88F8B3
:1046B00092B23CD1904536BFC2EB4502A8EB020254
:1046C000424492B2AA425ED2AA1A92B2BA4228BF19
:1046D0003A46B6F806B097B27B1B08EB070ACBF355
:1046E0000E0B9BB21FFA8AFAA845444603D3641BFB
:1046F000A4B2AC42FBD22D1B3068ADB2BD420BFB65
:10470000040057D349460BFB07F200F0C1FCB28806
:10471000D0454FEA420302D8BAEB420F03DBAAEBC3
:1047200003031FFA83FA3D46A6F808A02CE0B6F86A
:1047300006B0AF42CBF30E0B2FD2904536BFC2EB83
:104740004501A8EB0201414489B2680039447B1B52
:1047500081429BB20DDB02EB050A1FFA8AFAAAEB33
:1047600007081FFA88F8424537D9A8EB00001FFA5E
:1047700080F807EB080A1FFA8AFAB5E715462846BB
:1047800003B0BDE8F08F0025F0680028F7D000F0F6
:1047900087FE284603B0BDE8F08F002DF4D07F1BC4
:1047A00002EB050A0BFB079990462F4600231FFAE0
:1047B0008AFA99E715FB0BF5ADB22A4649460193F3
:1047C00000F066FC019B3068E21812FB0BF209EB6B
:1047D000050192B200F05CFC99E7404584DCC4E737
:1047E00010B50446C06818B14FF0FF3100F04CFE20
:1047F000206918B14FF0FF3100F046FE0023E06859
:104800006381238108B100F04BFE206908B100F0FC
:1048100047FE012010BD00BF38B50446C0680D46F4
:1048200018B14FF0FF3100F02FFE206918B14FF0A2
:10483000FF3100F029FEE379E06865F3C713E37107
:1048400008B100F02DFE206908B100F029FE01201A
:1048500038BD00BF2DE9F0410027012494460268CD
:104860000546D7665160D4661C1E38469DF8186010
:104870001EDD297986F0010789027F0204F1FF3EDF
:1048800070450CBFB8464FF000081CF8013B0B43C5
:1048900043EA08031361536BD906FCD5D2F88010A4
:1048A00049B970451CD0013084424FF00001E7D176
:1048B0002E71BDE8F0814FF00108536D536B9B05DD
:1048C000FCD5136EB8F1000FEDD069B1CB070BD456
:1048D00011F0080F08BF4FF0FF302E71BDE8F081D6
:1048E000002EE0D1B046E9E74FF0FF30E0E700BF2F
:1048F000F8B5044605200F46FDF770F800EB570C9D
:10490000BCFBF7FC204D0CEB4C02A5FB02651F49DC
:10491000AE088F4200EB4003ACEB95052ED801F1B9
:10492000D64101F5A10101F62C01A1FB03139B0D5A
:10493000013300214F2A98BF01222468B0FBFCF00C
:10494000E166216804F5805781F0040101F0060159
:10495000396088BF0C49E56184BFA1FB021292094E
:104960002662C4F8A0202246012152F87C5F6B40E9
:104970009BB202F580521360E166F8BD0449A1FBC9
:104980000313DB0D0133D4E7CDCCCCCC3F420F0079
:10499000893BE6550E4A30B4904214BF20221022C3
:1049A0000C4D0D4B0D4C2A601A60A36832EA0303CC
:1049B000FBD140F26515032402680371D3661560CC
:1049C000D3639363C2F8884030BCFFF791BF00BF48
:1049D000C40F0020002002400030024000000240CE
:1049E00010B49DF8044001945DF8044BFFF732BF0A
:1049F000024B0146186800F00BB800BFE01300201E
:104A0000024B0146186800F043BC00BFE0130020D1
:104A100001F10B03162B2DE9F04F074683B023D885
:104A2000102900F2AF8000F0AFFA10251823022001
:104A3000BA4E33445C68A3F10802944200F05681F8
:104A40006368384623F00303D4E902122344CA60A2
:104A500091605A68083442F001025A6000F09AFAF4
:104A6000204603B0BDE8F08F002B23F00705C0F20D
:104A70008980A94200F2868000F086FAB5F5FC7FB5
:104A8000C0F07B826B0A00F08480042B00F262810C
:104A9000AB0903F1390003F1380EC3009F4E3344D4
:104AA000A3F1080C5C68A44507D10DE0002AE16879
:104AB00080F216818C450C4606D0636823F0030310
:104AC0005A1B0F2AF2DD7046DFF8688234694445CC
:104AD00000F0F280636823F0030CACEB05030F2BAE
:104AE00000F37481002BC6E9048880F26381BCF571
:104AF000007FD6F804E080F0FF804FEADC0301225B
:104B00004FEA5C1C013302FA0CF256F833104EEAFD
:104B1000020E06EBC302083AC6F804E0C4E902122A
:104B200046F83340CC6083104FF0010C0CFA03FCC4
:104B3000F44534D81CEA0E0F07D120F003004FEAE9
:104B40004C0C04301CEA0E0FF9D006EBC00A81466B
:104B5000D646DEF80C300BE05A681C46DB6822F0C3
:104B60000302511B0F2900F30181002980F21581F6
:104B70009E45F1D109F101090EF1080E19F0030F5C
:104B8000E7D158E10C233B600024204603B0BDE888
:104B9000F08F4FF4007340204FF03F0E7EE7B46873
:104BA000636823F00309A945A9EB050302D30F2B82
:104BB00000F385805A4B08201B6803F1100804EBB2
:104BC0000903009300F056FA564AA8448346136836
:104BD000013305D008F1FF384342804403EA080856
:104BE0004146384600F02AFAB0F1FF3F82464D4A6E
:104BF00000F0078104EB0903834200F200814A4B75
:104C00000BF1FF3C18684044186000F064811168A3
:104C1000013100F06C8104EB0902AAEB02020244AC
:104C20001A601AF00702CDE9002300F02781C2F1D3
:104C30000802384692445A44D04408EA0C01521AF9
:104C400002EA0C0B594600F0F9F9421C019B00F0F6
:104C50006A81A0EB0A0000EB0B08186848F001021B
:104C6000B442C6F808A05844CAF80420186017D007
:104C7000B9F10F0F40F23E816168A9F10C024FF0CB
:104C8000050C22F0070201F0010111430F2A6160B7
:104C900004EB0201C1E901CC00F24D81DAF80420F5
:104CA000224B54461968814238BF1860204B19685E
:104CB000814238BF1860A6E0D6F804E033E76219F5
:104CC00045F0010543F00103083444F8045C38461C
:104CD000B260536000F05EF9204603B0BDE8F08F8B
:104CE000A26823443846D1608A60B2E6DC68A342F9
:104CF0007FF4A6AE0230E7E6BCF5206F4FEA5C22F7
:104D000076D3142A00F2CD8002F15C035B32DB0023
:104D1000F118F3580839994211D1A5E0D80F0020B5
:104D2000EC160020CC0F0020BC160020E41600205A
:104D3000E8160020E00F00209B68994204D05A68D2
:104D400022F003026245F7D8D968C4E902318C60C9
:104D5000DC60E8E6142B63D9542B00F2AB802B0BFC
:104D600003F16F0003F16E0EC30097E6D4F808C09C
:104D70003846671945F001056560CCF80C30C3F87A
:104D800008C041F00103C6E90477C7E902887B60E7
:104D9000A150083400F0FEF8F7E622443846516886
:104DA00041F00101516054F8082FD3609A6000F07F
:104DB000F1F8EAE6A44438460834DCF8043043F05D
:104DC0000103CCF8043000F0E5F8DEE6621943F0A8
:104DD000010145F0010538466560C6E90422C2E9D3
:104DE0000288516044F80C30083400F0D3F8CCE667
:104DF0004FEA9C1202F139033832DB0088E7B442F3
:104E000062D0B468626822F00308A845A8EB0503E5
:104E100002D30F2B3FF753AF384600F0BBF8B3E691
:104E200003F15C0003F15B0EC30037E65AF8083962
:104E3000534540F0A08010F0030F00F1FF30F5D192
:104E4000736823EA0C0373604FEA4C0C0CF1FF32D9
:104E50009A4204D3A3E64FEA4C0C09F104091CEA78
:104E6000030FF8D0484670E692104FF0010C0CFA90
:104E700002F24EEA020EC6F804E066E70AEB080208
:104E8000384602EA0C02ABEB020B0BEA0C0B59465C
:104E900000F0D4F8431C019B7FF4DBAEDDF800B0DA
:104EA000DBE6542A2AD84FEA1C3202F16F036E3235
:104EB000DB002DE7B3F5AA7F2AD8EB0B03F17800CE
:104EC00003F1770EC300E9E52E4B0BF1FF3C1868A8
:104ED000404418609BE61AEA0C0F7FF498AEC84471
:104EE000D6F808A048F00102CAF80420D8E6C2F8B3
:104EF00000A096E60123CAF804308DE7B2F5AA7F38
:104F000024D84FEADC3202F178037732DB00FFE687
:104F100040F25452934224D8AB0C03F17D0003F1CC
:104F20007C0EC300BAE5009A4FF0000B083A90449B
:104F3000A8EB0A0891E6384604F10801009300F056
:104F4000A7F9009BD6F808A01868A7E640F25453CA
:104F50009A420CD84FEA9C4202F17D037C32DB007E
:104F6000D6E64FF47E737F204FF07E0E96E54FF429
:104F70007E737E22CCE6736866E7E80805F10803D5
:104F800056E500BFBC160020014800F06FB800BF16
:104F9000B8160020014800F06BB800BFB81600201A
:104FA000830730B546D08418844604E003F8011B1B
:104FB0009D0704D09C46A4456346F7D130BD013A15
:104FC0000244A2EB0C02032A29D9CCB20F2A04EB2B
:104FD000042404EB04442FD9A2F1100C03F11005B2
:104FE0002CF00F0CAC44C3E90044C3E90244103375
:104FF0006345F8D112F00C0F02F00F0E18D02EF00E
:10500000030CAEF104051A469C4442F8044B624579
:10501000FBD125F0030404330EF003022344002ADD
:10502000CCD0C9B21A4403F8011B9342FBD130BD66
:105030007246F4E70346C6E79646E0E738B5002235
:10504000064D044608462A60FCF718FF431C00D0B2
:1050500038BD2B68002BFBD0236038BD501E0020CC
:10506000014B1868704700BFE0130020704700BF75
:10507000704700BF082802D14FF48050704708B530
:10508000FFF7EEFF162203464FF0FF301A6008BD0F
:10509000844641EA000313F0030349D1403A23D385
:1050A0000B6803604B6843608B688360CB68C360A8
:1050B0000B6903614B6943618B698361CB69C36190
:1050C0000B6A03624B6A43628B6A8362CB6AC36278
:1050D0000B6B03634B6B43638B6B8363CB6BC36360
:1050E00040304031403ADBD230320BD30B680360A2
:1050F0004B6843608B688360CB68C36010301031AD
:10510000103AF3D20C3205D351F8043B40F8043B7B
:10511000043AF9D2043208D0D2071CBF11F8013B7F
:1051200000F8013B01D30B8803806046704700BF45
:10513000082A13D38B07B1D010F00303AED0C3F10C
:105140000403D21ADB071CBF11F8013B00F8013B36
:10515000A4D331F8023B20F8023B9FE7043AD9D3AD
:10516000013A11F8013B00F8013BF9D20B780370CA
:105170004B7843708B7883706046704720F0030152
:1051800010F00300C0F1000051F8043B00F1040CE2
:105190004FEACC0C6FF000021CBF22FA0CF2134352
:1051A0004FF0010C4CEA0C2C4CEA0C4CA3EB0C021B
:1051B00022EA030212EACC1204BF51F8043B043085
:1051C000F4D0C2F1000102EA0102B2FA82F2C2F1A5
:1051D0001F0200EBD20070472DE9F8430646DFF8C6
:1051E000AC8008208946FFF745FF05463046FFF7AB
:1051F000CBFED8F808305F6827F00307A7F1110449
:10520000A4EB09042C44B4FBF5F4013C05FB04F4C5
:10521000A54208DC00213046FFF710FFD8F808301F
:105220003B44984205D03046FFF7B4FE0020BDE86D
:10523000F88361423046FFF701FF01300FD03F1B7A
:10524000104AD8F80830304647F001075F6013680D
:105250001B1B1360FFF79EFE0120BDE8F8830021B1
:105260003046FFF7EBFED8F80820831A0F2BDADD63
:1052700043F0010303495360034B1B68C01A0860E5
:10528000D1E700BFBC160020CC0F0020D80F0020B3
:1052900000295AD0F8B50C460746FFF775FE734D46
:1052A00054F804CCA4F10802A8682CF001030CF017
:1052B000010ED1184E68884226F003067CD088196A
:1052C0004E60406800F00100BEF1000F2ED154F88E
:1052D000084C05F1080C121B23449468644560D007
:1052E000D2F80CE0C4F80CE0CEF8084000287DD0DD
:1052F00043F0010050600B60B3F5007F2ED25809D7
:10530000D9080123834068680131034355F831000F
:105310006B6005EBC103083BC2E9020345F831208D
:10532000C2603846BDE8F840FFF734BE70B9334478
:1053300005F1080C886843F0010460456ED0C96827
:10534000C16088605460D350D6E770474CF00101CB
:10535000B3F5007F44F8041CD350D0D3B3F5206FCD
:105360004FEA532144D2990901F1390001F138047F
:10537000C100681869580838884203D155E0896827
:10538000884204D04C6824F003049C42F7D8C868D3
:10539000C2E9021082603846CA60BDE8F840FFF7F3
:1053A000F9BD80BB1E44D1E90213CB60996046F081
:1053B000010353609651B4E71E44BEF1000F07D1BC
:1053C00054F8083CD21A1E44D2E90213CB6099600B
:1053D00046F001035360264BAA601B68B342A0D875
:1053E000244B38461968FFF7F7FE9AE73344A1E7E4
:1053F00014290DD954291FD8190B01F16F0001F19F
:105400006E04C100B5E743F0010050600B6088E70F
:1054100001F15C0001F15B04C100AAE7C5E90422C7
:10542000C2E902CC5460D3507BE7A4100123A3400F
:105430006C6823436B60ABE7B1F5AA7F06D8D90B44
:1054400001F1780001F17704C10092E740F2545075
:10545000814206D8990C01F17D0001F17C04C10064
:1054600087E74FF47E717E2483E700BFD80F0020CA
:10547000D00F0020EC160020F8B500BF000000009F
:105480005FF800F0950A00205FF800F03502002078
:105490005FF800F00D0B00205FF800F0A90200207B
:1054A0005FF800F06D0200205FF800F0C90A0020EC
:1054B0005FF800F0CD0100205FF800F0110100203E
:1054C0005FF800F06D0A0020A91C00101D1C0010E0
:1054D000511C00103D1D0010891C0010A11B001064
:1054E000D11C00108D1B0010310E0010D51C0010B7
:1054F000F1110010ED1B0010BD1C00106D1C001000
:105500000D0A0010350A0010E926001011020010E3
:1055100048656C6C6F207468657265000A2A2A2AD7
:105520002050414E4943202A2A2A0A000A0000003E
:105530004E6F207370696E6C6F636B732061726560
:1055400020617661696C61626C6500004E6F207548
:1055500073657220495251732061726520617661D2
:10556000696C61626C6500004861726477617265A4
:1055700020616C61726D20256420616C72656164CC
:105580007920636C61696D65640000004861726434
:1055900020617373657274004F7574206F66206D9F
:1055A000656D6F727900000052656C65617365000E
:1055B000626F6F74325F77323571303830000000BF
:1055C000302E3100322E322E300000007069636FB1
:1055D000320000007069636F5F756172745F6F6C99
:1055E0006564000041707220203120323032360074
:1055F00055534220737464696E202F207374646F56
:10560000757400005261737062657272792050691E
:10561000000000005069636F00000000426F61727B
:105620006420434443000000526573657400000029
:10563000556E68616E646C65642049525120307803
:1056400025780A0065702025303258207761732054
:10565000616C726561647920617661696C61626C0C
:105660006500000043616E277420636F6E74696E7D
:1056700075652078666572206F6E20696E6163744F
:10568000697665206570202530325800AE200040D4
:10569000A1C8A81FD300DA02817FD580D9F1DB40F1
:1056A000A4A68D14AF00000021007F22000300009B
:1056B000000000000000000006005250D3F07542C8
:1056C000A855001006005250E182887FB0550010A6
:1056D000060052503ABCA911C055001006005250A5
:1056E000ABB36053C455001006005250BBFF3CB62C
:1056F000CC55001006005250861C0302D4550010F1
:10570000060052505422A29DE4550010050052504C
:10571000DE65F468346D00100D0A00000000000022
:1057200065210010000000006921001075210010A3
:10573000A12100109D210010000000000A000000BF
:1057400000000306A6000800020002009C001400EE
:10575000030057494E55534200000000000000006E
:10576000000080000400010028004400650076006D
:1057700069006300650049006E00740065007200F6
:105780006600610063006500470055004900440061
:1057900000004E007B0062006300370033003900D8
:1057A0003800630031002D003700330063006400CF
:1057B0002D0034006300620037002D0039003800EE
:1057C000620038002D0039003100330061003800DC
:1057D00066006300610037006200660036007D00ED
:1057E00000000000050F2100011C100500DF60DD36
:1057F000D88945C74C9CD2659D9E648A9F00000352
:1058000006A60001000000000600525053B4F4A1A7
:10581000F05500100000000004560010145600104F
:10582000042500201C5600102856001009025400C0
:10583000030100807D080B00020202000009040041
:1058400000010202000405240020010524010001DA
:105850000424020605240600010705810308001040
:1058600009040100020A00000007050202400000CE
:10587000070582024000000904020000FF00010544
:1058800012011002EF0201408A2E090000010102FC
:1058900003010000000000009D3A00100D3B0010C5
:1058A0003D3B0010893B0010493C0010093D0010B1
:1058B0000000000000000000013E00105D3E0010EE
:1058C000793E00109D3E0010F9210010913F00101C
:0458D00000000000D4
:0858D400BCF7FF7F010000009A
:1058DC00B8560010C4560010D0560010DC560010FC
:1058EC00E8560010F4560010005700100C5700102A
:0458FC000858001038
:10590000034600B50268EFF3108C72B6D2E8CFEF11
:105910000120BEF1000FF9D1C2E84E0FBEF1000F19
:10592000F4D1BFF35F8F93F90420002A0ADB01B1A1
:105930000A60002000221B68C3E88F2F8CF31088B8
:105940005DF804FB4FF05042126801201A71F1E734
:105950004FF050412DE9F0410027044616461D4600
:10596000D1F8008008E0C1E88F7F8CF310883046C2
:10597000294600F02DFEE8B92168EFF3108C72B6CD
:10598000D1E8CF2F0123002AFAD1C1E8423F002AF3
:10599000F6D1BFF35F8F94F904302168002BE2DA6F
:1059A000002384F80480C1E88F3F8CF31088012025
:1059B000BDE8F0810020BDE8F08100BF30B504688B
:1059C000EFF3108C72B6D4E8CFEF0125BEF1000FD3
:1059D000F9D1C4E84E5FBEF1000FF4D1BFF35F8F81
:1059E00090F904400568002C10DB0021C5E88F1FEA
:1059F0008CF310884FF0504595F90050A54201D125
:105A0000084630BDBDE83040FFF7A2BF4FF050421E
:105A1000126800230271C5E88F3F8CF310880120C3
:105A200030BD00BF70B505460C4600F0D5FD0246FE
:105A30000B464FF47A704FF0FF3E6FF0004CE4FBE2
:105A4000002396457CEB030138BF72462846BDE82B
:105A5000704038BF6346FFF77BBF00BF0368EFF3BA
:105A6000108272B6D3E8CFCF0121BCF1000FF9D17B
:105A7000C3E84C1FBCF1000FF4D1BFF35F8F4FF0B0
:105A8000FF0C0023016880F804C0C1E88F3F82F357
:105A9000108840BF704700BF002108B5134B4FF47A
:105AA000707299601248D960196159619961D96120
:105AB000196259629962D962196359639963D9630A
:105AC000196459649964D964196559659965D965EA
